:10000000622E000000000000090006308312031376
:100010008100FB30831203138B050430831203131A
:100020000B0583120313A900831203132908003A56
:1000300083120313031D1D280D28080083120313C8
:10004000BD0183120313BE0183120313210883121F
:1000500003133E0283120313031D34288312031378
:100060002008831203133D0283120313031843284D
:10007000052083120313BD0A83120313031983128D
:100080000313BE0A2428080000000000000000003E
:100090000800000000000000000000000000000058
:1000A0000000000000000000000000000000000050
:1000B000000000000000000000000800FB30831674
:1000C000031387056330831603139200831203130F
:1000D000910105308312031392000C308312031335
:1000E00097000800013083120313250283120313C3
:1000F000031D7E28903083120313240283120313FE
:10010000031C8A288F3083120313A400013083124A
:100110000313A50083120313240883120313A700FB
:1001200083120313250883120313A80083120313F9
:10013000A80C83120313A70C83120313A8138312B2
:100140000313A80C83120313A70C83120313A81321
:1001500083120313270883120313950003308312BD
:100160000313240583120313A90083120313250824
:1001700083120313AA00003083120313AA0583120B
:100180000313290883120313B000831203132A08F0
:1001900083120313B1000030831203132A06831263
:1001A0000313031DD728003083120313290683127B
:1001B0000313031DDF2883120313B4010D2900303C
:1001C00083120313310683120313031DEB2801303E
:1001D00083120313300683120313031DF428103017
:1001E00083120313B4000D29003083120313310668
:1001F00083120313031D00290230831203133006F8
:1002000083120313031D0929203083120313B40042
:100210000D29303083120313B400CF30831203133F
:10022000170583120313A7008312031334088312E4
:10023000031327048312031397000800C6308312A8
:10024000031387050800C6308312031307058312C2
:100250000313A7001130831203132704831203131F
:1002600087000800C63083120313070583120313A7
:10027000A700183083120313270483120313870087
:100280000800C63083120313070583120313A70067
:1002900021308312031327048312031387000800FD
:1002A000F6308312031387050800CF30831203133F
:1002B0008705080083120313861F63290130831208
:1002C0000313A900662983120313A90183120313E0
:1002D0002908003A83120313031D73290130831286
:1002E0000313AE00762983120313AE0183120313A6
:1002F0002E0883120313A700080083120313061F9E
:100300008629013083120313A9008929831203135C
:10031000A901831203132908003A83120313031D52
:100320009629013083120313AE0099298312031317
:10033000AE01831203132E0883120313A7000800D3
:1003400083120313081EA929013083120313A90085
:10035000AC2983120313A901831203132908003A5D
:1003600083120313031DB929013083120313AE0056
:10037000BC2983120313AE01831203132E088312C8
:100380000313A700080083120313881ECC29013031
:1003900083120313A900CF2983120313A901831227
:1003A00003132908003A83120313031DDC290130CB
:1003B00083120313AE00DF2983120313AE018312ED
:1003C00003132E0883120313A70008008E30831630
:1003D00003139F008130831203139F0006308312A2
:1003E0000313AC00303083120313AD0083120313E8
:1003F000AD0BF62983120313AC0BF6290000831210
:1004000003131F15831203131F1D072A022A8312C9
:1004100003131E0883120313B20083120313B301E4
:1004200083120313320883120313AF0083120313E2
:10043000AE01831603131E0883120313A700831251
:100440000313A801831203132E0883120313A707B3
:10045000831203132F08831203130318013E831220
:100460000313A80708008312031339088312031328
:10047000031D6C2A831203132308003C8312031309
:10048000031D462A831203132208A03C8312031380
:10049000031C682AFF3083120313380283120313EC
:1004A0000318552A83120313B80A03308312031367
:1004B000380283120313031C672A013083120313CB
:1004C000B90083120313B80183120313B7016B2A17
:1004D00083120313B8019C2A0030831203132302F2
:1004E00083120313031D782AB430831203132202EC
:1004F00083120313031C992AFF308312031337025C
:10050000831203130318872A83120313B70A0330D5
:1005100083120313370283120313031C982A8312D6
:100520000313B90183120313B70183120313B80134
:100530009C2A83120313B701831203133908831211
:1005400003130319A72A831203138814AB2AFD305F
:1005500083120313880508008312031326088312ED
:100560000313A70083120313A8013A308312031365
:10057000B20083120313B301482783120313270821
:1005800083120313C7008312031328088312031373
:10059000C800F73083120313860544208312031327
:1005A00086154920F73083120313860530308312F5
:1005B0000313C900753083120313CA000430831279
:1005C0000313060583120313A900831203132908DA
:1005D000003A83120313031D022B831203134908ED
:1005E000831203134A04831203130319022B0130ED
:1005F00083120313C90283120313031C8312031310
:10060000CA03DE2A0030831203134A06831203133F
:10061000031D0E2B003083120313490683120313AC
:10062000031D162B83120313A701A32B831203139D
:100630000F0883120313C50083120313C60183122C
:100640000313450883120313C60083120313C50165
:10065000831203130E0883120313A70083120313DC
:10066000A80183120313270883120313C5078312FB
:1006700003132808831203130318013E8312031384
:10068000C60783120313061D9F2B831203130F0843
:1006900083120313B20083120313B30183120313F3
:1006A000320883120313AF0083120313AE018312C7
:1006B00003130E0883120313A70083120313A80168
:1006C000831203132E0883120313A7078312031345
:1006D0002F08831203130318013E83120313A80784
:1006E0008312031345088312031327028312031393
:1006F000AE0083120313460883120313031C013E4A
:1007000083120313280283120313AF00831203130F
:100710002F0883120313480283120313031D962B21
:10072000831203132E088312031347028312031349
:1007300003189E2B83120313A701A32B412B013017
:1007400083120313A70008002321403083120313F0
:10075000A400013083120313A50072200630831217
:100760000313AC00303083120313AD008312031364
:10077000AD0BB62B83120313AC0BB62B00008C30E1
:1007800083120313A400003083120313A500722008
:10079000223083120313AC00C33083120313AD0065
:1007A00083120313AD0BD02B83120313AC0BD02B8E
:1007B0001E21083083120313AC00C93083120313C7
:1007C000AD0083120313AD0BE12B83120313AC0BAB
:1007D000E12B0000000008005A21831203132708B0
:1007E00083120313BF007D21831203132708831292
:1007F0000313C000A423831203133F0883120313BF
:1008000003191F2C83120313400883120313031DC3
:100810001F2C5021063083120313AC00303083129A
:100820000313AD0083120313AD0B122C83120313B9
:10083000AC0B122C000083120313BA01A52C8312F7
:1008400003133F0883120313031D442C8312031365
:100850004008831203130319442C552106308312D8
:100860000313AC00303083120313AD008312031363
:10087000AD0B362C83120313AC0B362C0000013069
:1008800083120313BA00A52C831203133F088312AB
:100890000313031DA52C83120313400883120313B3
:1008A000031DA52C831203133A08003A8312031385
:1008B000031D5C2C32215D2C412140308312031337
:1008C000A400013083120313A50072203430831278
:1008D0000313AC00F13083120313AD008312031332
:1008E000AD0B6E2C83120313AC0B6E2C00000000BA
:1008F0008C3083120313A400003083120313A5006D
:100900007220413083120313AC00EE3083120313C4
:10091000AD0083120313AD0B892C83120313AC0BB0
:10092000892C00001E211A3083120313AC00F8300A
:1009300083120313AD0083120313AD0B9B2C8312A0
:100940000313AC0B9B2C0000A52C08001E21831266
:100950000313A40183120313A50172200330831231
:100960000313AB00083083120313AC0077308312FB
:100970000313AD0083120313AD0BBA2C83120313C0
:10098000AC0BBA2C83120313AB0BBA2C32214030C0
:1009900083120313A400013083120313A5007220F5
:1009A000023083120313AB00383083120313AC0000
:1009B000AD3083120313AD0083120313AD0BDC2C97
:1009C00083120313AC0BDC2C83120313AB0BDC2C54
:1009D0008C3083120313A400003083120313A5008C
:1009E0007220043083120313AB00DB308312031335
:1009F000AC00FF3083120313AD0083120313AD0B61
:100A0000FD2C83120313AC0BFD2C83120313AB0BD1
:100A1000FD2C1E2183120313A40183120313A501CD
:100A20007220033083120313AB00083083120313C8
:100A3000AC00773083120313AD0083120313AD0BA8
:100A40001D2D83120313AC0B1D2D83120313AB0B4F
:100A50001D2D3221403083120313A4000130831274
:100A60000313A5007220023083120313AB00383049
:100A700083120313AC00AD3083120313AD00831255
:100A80000313AD0B3F2D83120313AC0B3F2D8312C9
:100A90000313AB0B3F2D8C3083120313A4000030E3
:100AA00083120313A5007220043083120313AB00DA
:100AB000DB3083120313AC00FF3083120313AD004D
:100AC00083120313AD0B602D83120313AC0B602D47
:100AD00083120313AB0B602D1E2183120313A40199
:100AE00083120313A50172200800412140308312B4
:100AF0000313A400013083120313A50072200230F7
:100B000083120313AB00383083120313AC00AD30F3
:100B100083120313AD0083120313AD0B8B2D8312CD
:100B20000313AC0B8B2D83120313AB0B8B2D8C306B
:100B300083120313A400003083120313A500722054
:100B4000043083120313AB005A3083120313AC003A
:100B50001F3083120313AD0083120313AD0BAC2DB2
:100B600083120313AC0BAC2D83120313AB0BAC2D10
:100B7000000000001E2183120313A401831203133B
:100B8000A5017220023083120313AB0038308312A8
:100B90000313AC00AD3083120313AD0083120313B3
:100BA000AD0BCE2D83120313AC0BCE2D831203138A
:100BB000AB0BCE2D0800A02183120313270883124C
:100BC0000313CD00C32183120313270883120313D9
:100BD000CC00053083120313A600AC22831203134A
:100BE000270883120313CB00A423831203134B089B
:100BF000831203130319462E831203134D08831225
:100C000003130319172E5021083083120313AC006D
:100C1000C93083120313AD0083120313AD0B0C2EE6
:100C200083120313AC0B0C2E00000000452E831220
:100C300003134C08831203130319322E5521083075
:100C400083120313AC00C93083120313AD00831267
:100C50000313AD0B272E83120313AC0B272E0000BA
:100C60000000452E5021083083120313AC00C93018
:100C700083120313AD0083120313AD0B3B2E8312BB
:100C80000313AC0B3B2E00000000612E83120313F4
:100C90004D088312031303194E2E612E552108307F
:100CA00083120313AC00C93083120313AD00831207
:100CB0000313AD0B572E83120313AC0B572E0000FA
:100CC000000008000130831603138500C43083162A
:100CD0000313860083160313870130308316031332
:100CE0008800831203138501831203138601831284
:100CF00003138701FD308312031388050230831626
:100D00000313810011308312031390005E205A21D7
:100D100083120313270883120313C1007D2183125A
:100D20000313270883120313C200E621831203135F
:100D3000270883120313C3008312031328088312A6
:100D40000313C40083120313270883120313A200A2
:100D500083120313280883120313A3003322831280
:100D600003134408003C83120313031DBB2E83129C
:100D700003134308A03C83120313031CC32E8312E6
:100D800003130616C72EEF30831203138605831252
:100D900003133C08003A83120313031D2F2F831201
:100DA000031341088312031303190D2F8312031336
:100DB00042088312031303190D2F831203133608FD
:100DC000003A83120313031D0D2FFF308312031308
:100DD0003502831203130318F02E83120313B50A8E
:100DE000053083120313350283120313031C0C2FE7
:100DF000831203133B08003A83120313031D0C2FC5
:100E0000A624013083120313BB0083120313B50120
:100E1000083083120313B6001B2F83120313B5018E
:100E2000831203133608003C8312031303181B2F8D
:100E300083120313B603831203133B0883120313B5
:100E400003192D2F83120313390883120313031977
:100E50002D2F013083120313BC00EC23462F831285
:100E600003133C08013A83120313031D452FEC239F
:100E700083120313390883120313031D442F7525AE
:100E8000023083120313BC00462FDB25872E472F29
:100E900083120313270883120313CE008312031354
:100EA000280883120313CF0083120313320883121E
:100EB0000313D00083120313D10183120313D20151
:100EC000083083120313D30083120313501C782FAE
:100ED000831203134E0883120313D10783120313E3
:100EE0004F08831203130318013E83120313D20722
:100EF00083120313031083120313CE0D8312031303
:100F0000CF0D83120313031083120313D00C83122B
:100F10000313D30B482F83120313510883120313B7
:100F2000A70083120313520883120313A8000800BA
:00000001FF
